:0400000080312528FE
:100008007E14803140017F08F0004E018C1E1328B9
:1000180001304001E5070030E63D4E018C124001F9
:1000280068086606031D1A2867086506031D202848
:10003800FB01FB0A4B019E1370084001FF007E1074
:10004800090080312728FB014001E501E601E701AD
:10005800E8017E1040018231CF2A4E018F1F3128DE
:100068000230F1000030F200833164238031400116
:10007800DE01DF017B08031D54284E018F1F3E2837
:1000880084312D248031FA0040015E083E3E86000E
:1000980087017A0881000130DE070030DF3D3E2805
:1000A80040015E083E3E8600870181012330F10051
:1000B8008430F2003E308231862280317108720429
:1000C800031D69288131FB2108001930F1008430B3
:1000D800F2003E3082318622803171087204031D9D
:1000E80078288031D7200800E530F1008330F2000D
:1000F8003E3082318622803171087204031D8728C0
:100108008131A72108000F30F1008430F2003E3021
:1001180082318622803171087204031D9C28813146
:10012800FB2180318031D72080318131A72108001F
:100138009E30F1008330F2000C30F3000030F40000
:100148003E3082314622803171087204031D080056
:100158004A30FA007A084001E200E001E101620851
:10016800860087010D3001060319CE286208860033
:1001780087010108FA006008203E860087017A0896
:1001880081000130FA007A08E2070130E007003008
:10019800E13DB3286008203E8600870181012030B8
:1001A8008231ED220800B730F2008330F30083314A
:1001B80021238031033081314E218031AB30F20070
:1001C8008330F3008331072380311530F8004B303A
:1001D800F700BE30890BEE28F70BEE28F80BEE2857
:1001E80000324130F2008430F3008331072380313C
:1001F8006830F700E430890BFF28F70BFF2800323E
:100208008431372480310130F1000030F20083312D
:10021800642380317B08031D1B294E018F1E0E2984
:1002280084313724803184315A2480310E29CF30EB
:10023800F2008330F3008331072380316830F70000
:10024800E430890B2529F70B252900320130F1000C
:100258000030F2008331642380317B08031D3E297E
:100268004E018F1E312984313724803184315A243C
:1002780080313129FB30F2008330F30083312123B0
:1002880080316830F700E430890B4829F70B48299A
:1002980000320800F1007E01A601A1019401A40129
:1002A80092290F307E01A600003042019C00CF3019
:1002B8009B00400194157D014B08C03913389029E3
:1002C8000F307E01A100003042019C0010309B00DD
:1002D800400114147D014B08C039103890290F30A3
:1002E8007E019400003042019C0010309B004001C8
:1002F80092167D014B08C039053890290F307E01D0
:10030800A400003042019C00CF309B0040019416AD
:100318007D014B08C0391538CB00A0297108003A77
:1003280003198229013A03197329033A0319552934
:10033800013A03196429A02942011E151E129D17AE
:100348009E161D1608009130F2008330F3008331A9
:1003580021238131013081314E2181315130F20028
:100368008330F3008331072381311530F8004B3097
:10037800F700BE30890BBE29F70BBE29F80BBE2942
:100388000032F030F2008330F300833107238131EB
:100398006830F700E430890BCF29F70BCF290032FA
:1003A8008431372481310330F1000030F200833189
:1003B800642381317B08031DEB294E018F1EDE2942
:1003C80084313724813184315A248131DE29DA306D
:1003D800F2008330F3008331212381316830F70044
:1003E800E430890BF529F70BF529003208000030B5
:1003F80081314E218131C330F2008330F3008331E3
:1004080021238131F8010330F1000030F2008331FB
:1004180064238131312A4E018F1E312A4A30F1007E
:100428008430F2008231AD228131003A0319312A39
:100438006330F7007708F9000A30790603192F2A84
:10044800843137248131F7007708F900790884313D
:100458005A248131202AF801F80A7B080319780800
:1004680003190F2A0530F2008430F3008331212369
:1004780081316830F700E430890B402AF70B402AB5
:1004880000320800F7000130F3020030F43B730A31
:100498000319740A0319832A77088600870101085B
:1004A8000319632A71088400720885000008F500A2
:1004B8007708860087010108750603197A2A7108EA
:1004C8008400720885000008F500F601F509F609B0
:1004D800F50A0319F60A77088600870101087507E7
:1004E800F10076080318760AF20008000130F500DA
:1004F8007508F7070130F1070030F23D472AF1018E
:10050800F2010800F500902A0130F3007308F5079E
:100518000130F1070030F23D750886008701710847
:100528008400720885000008FF3A013E0107F300C5
:100538007308F4007408031DA72A7508860087014C
:100548000108031D882A7408F100F201F11BF20367
:100558000800F401F5017108740784007208753DFC
:10056800850012000319CD2A7108740784007208E7
:10057800753D85000008F300843137248231730605
:10058800031DCB2A0130F4070030F53DAF2A0030B7
:100598000800013008007E01B801C301CE018B17A5
:1005A8000B17CB304001E400EC30E3008430890BBA
:1005B800DB2AE30BDB2AE40BDB2A000083313B2335
:1005C8008231023081314E218231803131208231B5
:1005D800E92AF700023081314E2182316230F2007F
:1005E8008430F3008331072382317708F20000302A
:1005F800F3008331072382316130F2008330F30046
:10060800833107230800F501F60172087507840095
:100618007308763D850012000319080072087507F3
:1006280084007308763D85000008843152248331A4
:100638000130F5070030F63D092BF501F601720887
:10064800750784007308763D8500120003190800B9
:100658007208750784007308763D850000088431A8
:100668005A2483310130F5070030F63D232B113031
:100678007E019E0054011E1500309C0010309B0026
:100688001E129D179E16400193167D014D08C03914
:100698000D38CD0054011D160800413454342B3454
:1006A800433457344C34413450344F345034543438
:1006B8003D3431342C34313432340D340A3400347E
:1006C800FB0172084001E8007108E700E501E60156
:1006D8004E01961610304B019E0047309F009E1722
:1006E800080053344934473446344F3458345F345F
:1006F800533454344134523454340D340A340034AD
:1007080053344934473446344F3458345F344534CD
:100718004E3444340D340A340034573449344634A2
:1007280049345F34533454344134523454340D34DE
:100738000A340034533445344E3444345F3453342B
:100748004934473446344F3458343A340034413409
:1007580054342B3443345234453447343D343234E2
:100768000D340A340034473453344D345F34533431
:1007780054344134523454340D340A340034473438
:10078800503453345F345334543441345234543431
:100798000D340A340034413454342B344334523445
:1007A800453447343F340D340A340034573449341F
:1007B800463449345F3445344E3444340D340A34B5
:1007C80000344734453454345F345734493446345C
:1007D80049340D340A340034413454342B3443340E
:1007E80057344C34413450340D340A3400344734CF
:1007F80053344D345F3445344E3444340D340A3464
:1008080000344734503453345F3445344E34443420
:100818000D340A3400344734453454345F34413499
:100828004C344C340D340A34003447344534543491
:100838005F34473453344D340D340A34003447346C
:10084800453454345F344734503453340D340A3407
:1008580000344E018F1F2D2C54019D1C352C9D13E7
:100868009D17190808004E018F1E372C42019D1C48
:100878003F2C9D139D1719080800413454342B341C
:100888004334533451340D340A3400342434473457
:1008980050344734473441342C340034F1004E018D
:1008A8000F1E532C710842019A000800F1004E01F6
:1008B8000F1F5B2C710854019A000800413454340E
:1008C8002434533446343D340034413454340D34E4
:0408D8000A340034AA
:020000040001F9
:0A000E008C3FFF3F9F3FFF3FFF3F85
:00000001FF
