:0400000080312528FE
:100008007E14803140017F08F0004E018C1E1328B9
:1000180001304001E5070030E63D4E018C124001F9
:1000280068086606031D1A2867086506031D202848
:10003800FB01FB0A4B019E1370084001FF007E1074
:10004800090080312728FB014001E501E601E701AD
:10005800E8017E1040018231F22A4E018F1F3128BB
:100068000230F1000030F2008331872380314001F3
:10007800DE01DF017B08031D54284E018F1F3E2837
:1000880084315E248031FA0040015E083E3E8600DD
:1000980087017A0881000130DE070030DF3D3E2805
:1000A80040015E083E3E8600870181015430F10020
:1000B8008430F2003E308231A92280317108720406
:1000C800031D702882311E228031A730F200833050
:1000D800F3008331442308004A30F1008430F200F1
:1000E8003E308231A922803171087204031D8628AE
:1000F8008031FA208031A730F2008330F300833159
:10010800442308001630F1008430F2003E3082317A
:10011800A922803171087204031D9C288131CA21EB
:100128008031A730F2008330F30083314423080084
:100138004030F1008430F2003E308231A922803113
:1001480071087204031DB82882311E228031803163
:10015800FA2080318131CA218031A730F200833002
:10016800F300833144230800CF30F1008330F200DC
:100178000C30F3000030F4003E30823169228031C7
:1001880071087204031D08004A30FA007A08400119
:10019800E200E001E1016208860087010D300106F6
:1001A8000319EA286208860087010108FA00600836
:1001B800203E860087017A0881000130FA007A081B
:1001C800E2070130E0070030E13DCF286008203E1B
:1001D8008600870181012030833110238031A730C8
:1001E800F2008330F300833144230800E830F20042
:1001F8008330F3008331442380310330813171210E
:100208008031DC30F2008330F30083312A238031DF
:100218001530F8004B30F700BE30890B1129F70B69
:100228001129F80B112900327230F2008430F300E2
:1002380083312A2380316830F700E430890B222982
:10024800F70B222900328431682480310130F10013
:100258000030F2008331872380317B08031D3E295B
:100268004E018F1E312984316824803184318B24DA
:10027800803131290030F2008430F30083312A23A1
:1002880080316830F700E430890B4829F70B48299A
:1002980000320130F1000030F200833187238031D1
:1002A8007B08031D61294E018F1E5429843168245F
:1002B800803184318B24803154292C30F2008430F1
:1002C800F3008331442380316830F700E430890B30
:1002D8006B29F70B6B2900320800F1007E01A6019B
:1002E800A1019401A401B5290F307E01A6000030B8
:1002F80042019C00CF309B00400194157D014B08C2
:10030800C0391338B3290F307E01A10000304201F3
:100318009C0010309B00400114147D014B08C0392B
:100328001038B3290F307E019400003042019C0040
:1003380010309B00400192167D014B08C0390538EA
:10034800B3290F307E01A400003042019C00CF3059
:100358009B00400194167D014B08C0391538CB002D
:10036800C3297108003A0319A529013A03199629E6
:10037800033A03197829013A03198729C329420145
:100388001E151E129D179E161D160800C230F2007B
:100398008330F3008331442381310130813171216D
:1003A80081317430F2008330F30083312A238131A4
:1003B8001530F8004B30F700BE30890BE129F70BF8
:1003C800E129F80BE12900322130F2008430F300F2
:1003D80083312A2381316830F700E430890BF22910
:1003E800F70BF22900328431682481310330F1009F
:1003F8000030F2008331872381317B08031D0E2AE8
:100408004E018F1E012A84316824813184318B2466
:100418008131012A0B30F2008430F3008331442308
:1004280081316830F700E430890B182AF70B182A55
:10043800003208000030813171218231F430F2003D
:100448008330F300833144238231F8010330F10013
:100458000030F200833187238231542A4E018F1EE7
:10046800542A7B30F1008430F2008231D02282316C
:10047800003A0319542A6330F7007708F9000A3064
:1004880079060319522A843168248231F7007708E3
:10049800F900790884318B248231432AF801F80A5B
:1004A8007B08031978080319322A3630F2008430A1
:1004B800F3008331442382316830F700E430890B3C
:1004C800632AF70B632A00320800F7000130F302B1
:1004D8000030F43B730A0319740A0319A62A770833
:1004E8008600870101080319862A710884007208AA
:1004F80085000008F5007708860087010108750661
:1005080003199D2A71088400720885000008F50007
:10051800F601F509F609F50A0319F60A77088600BF
:10052800870101087507F10076080318760AF200BA
:1005380008000130F5007508F7070130F1070030B1
:10054800F23D6A2AF101F2010800F500B32A0130F0
:10055800F3007308F5070130F1070030F23D750824
:100568008600870171088400720885000008FF3A38
:10057800013E0107F3007308F4007408031DCA2A3A
:100588007508860087010108031DAB2A7408F1006D
:10059800F201F11BF2030800F401F5017108740778
:1005A80084007208753D850012000319F02A71084D
:1005B800740784007208753D85000008F3008431D3
:1005C800682482317306031DEE2A0130F4070030D7
:1005D800F53DD22A00300800013008007E01B8013C
:1005E800C301CE018B170B17CB304001E400EC3070
:1005F800E3008430890BFE2AE30BFE2AE40BFE2A73
:10060800000083315E2382310230813171218231D1
:100618008031312082310C2BF70002308131712179
:1006280083319330F2008430F30083312A238331FD
:100638007708F2000030F30083312A2383318430B5
:10064800F2008330F30083312A230800F501F60114
:100658007208750784007308763D85001200031937
:1006680008007208750784007308763D8500000845
:100678008431832483310130F5070030F63D2C2B7B
:10068800F501F6017208750784007308763D850048
:100698001200031908007208750784007308763D74
:1006A8008500000884318B2483310130F507003040
:1006B800F63D462B11307E019E0054011E15003078
:1006C8009C0010309B001E129D179E164001931629
:1006D8007D014D08C0390D38CD0054011D160800A4
:1006E800413454342B34433457344C34413450342B
:1006F8004F34503454343D3431342C343134323462
:100708000D340A340034FB0172084001E800710816
:10071800E700E501E6014E01961610304B019E00F8
:1007280047309F009E1708005334493447344634F5
:100738004F3458345F34533454344134523454347D
:100748000D340A3400344D34453453345334413471
:10075800473445345F3445344E3444340D340A3418
:10076800003453344934473446344F3458345F34B2
:1007780045344E3444340D340A3400345734493443
:10078800463449345F345334543441345234543445
:100798000D340A340034533445344E3444345F3411
:1007A80053344934473446344F3458343A34003497
:1007B800413454342B3443345234453447343D3473
:1007C80032340D340A340034473453344D345F34F2
:1007D800533454344134523454340D340A340034CC
:1007E8004734503453345F345334543441345234DE
:1007F80054340D340A340034413454342B344334E3
:100808005234453447343F340D340A3400345734B5
:100818004934463449345F3445344E3444340D3415
:100828000A3400344734453454345F345734493437
:10083800463449340D340A340034413454342B34AA
:10084800433457344C34413450340D340A34003472
:10085800473453344D345F3445344E3444340D34C6
:100868000A3400344734503453345F3445344E34FA
:1008780044340D340A3400344734453454345F3436
:1008880041344C344C340D340A3400344734453444
:1008980054345F34473453344D340D340A340034FF
:1008A8004734453454345F344734503453340D346A
:1008B8000A3400344E018F1F5E2C54019D1C662C97
:1008C8009D139D17190808004E018F1E682C4201C0
:1008D8009D1C702C9D139D17190808004134543431
:1008E8002B344334533451340D340A340034243413
:1008F800473450344734473441342C340034F10001
:100908004E010F1E842C710842019A000800F10064
:100918004E010F1F8C2C710854019A0008004134B5
:1009280054342434533446343D340034413454343C
:060938000D340A34003406
:020000040001F9
:0A000E008C3FFF3F9F3FFF3FFF3F85
:00000001FF
