:0400000080312528FE
:100008007E14803140017F08F0004E018C1E1328B9
:1000180001304001E9070030EA3D4E018C124001F1
:100028006C086A06031D1A286B086906031D202838
:10003800FC01FC0A4B019E1370084001FF007E1072
:10004800090080312728FC014001E901EA01EB01A0
:10005800EC017E1040018331F32B4E018F1F3128B4
:100068000230F1000030F2008431DA24803140019E
:10007800E201E3017C08031D54284E018F1F3E282E
:100088008531F7258031FB0040016208403E86003B
:1000980087017B0881000130E2070030E33D3E28FC
:1000A80040016208403E860087018101E330F1008B
:1000B8008530F20040308331CC23803171087204DE
:1000C800031D70288331412380310930F2008530C7
:1000D800F300843151240800D930F1008530F20052
:1000E80040308331CC23803171087204031D862887
:1000F80081319D2180310930F2008530F30084314F
:10010800512408009030F1008530F20040308331EE
:10011800CC23803171087204031D9C288231882207
:1001280080310930F2008530F30084315124080011
:100138009B30F1008430F20040308331CC23803191
:1001480071087204031DBF28EB30F7008430F800F3
:1001580084316B24803183314123803181319D2169
:1001680080318231882280310930F2008530F300F5
:10017800843151240800CF30F1008530F20040303E
:100188008331CC23803171087204031DDB2883314D
:100198004123803181319D21803182318822803113
:1001A8000930F2008530F3008431512408003130E1
:1001B800F1008530F2000C30F3000030F4004030DC
:1001C80083318C23803171087204031D19294C3046
:1001D800FB007B084001E600E401E50166088600B3
:1001E80087010D30010603190D296608860087016D
:1001F8000108FB006408223E860087017B08810015
:100208000130FB007B08E6070130E4070030E53DDC
:10021800F2286408223E8600870181012230F70017
:100228000030F80084316B240800A630F1008530D6
:10023800F20040308331CC23803171087204031DF1
:100248004D293C30F7008630F8006E30F9008530D3
:10025800FA008231142280310430F1000030F200BB
:100268008431DA2480317C08031D08004E018F1E7A
:100278003729863101268031FB007B084001E000E8
:100288004F30600603199A13600886312D26803195
:100298003729A330F1008430F20040308331CC2379
:1002A800803171087204031D7F298430F70084307F
:1002B800F80084316B24803140019A170A30F1002C
:1002C8000030F2008431DA2480317C08031D0800F4
:1002D8004E018F1E6929863101268031FB007B087B
:1002E8004001E1004F30610603199A136108863115
:1002F8002D26803169290B30F1008630F20040301C
:100308008331CC23803171087204031D8E2940018A
:100318009A170800C530F1008530F200403083316B
:10032800CC23803171087204031D080040019A1320
:1003380008005630F2008530F300843151248131B1
:1003480003308231E82281314A30F2008530F300EF
:100358008431372481311530F8004B30F700BE3036
:10036800890BB429F70BB429F80BB42900321430DF
:10037800F2008630F3008431372481316830F70089
:10038800E430890BC529F70BC529003286310126CF
:1003980081310130F1000030F2008431DA248131FA
:1003A8007C08031DE1294E018F1ED42986310126C0
:1003B800813186312D268131D4297A30F200853079
:1003C800F3008431372481316830F700E430890B39
:1003D800EB29F70BEB2900320130F1000030F20075
:1003E8008431DA2481317C08031D042A4E018F1ED2
:1003F800F72986310126813186312D268131F72969
:10040800B130F2008530F3008431512481316830F5
:10041800F700E430890B0E2AF70B0E2A0032080089
:1004280003308231E82282313E30F2008530F30019
:1004380084313724823152304001A1002B30A00092
:100448000030890B252AA00B252AA10B252A00009C
:10045800ED30F2008530F30084313724823178089A
:10046800F3007708F2008431372482314830F200F3
:100478008630F3008431372482317A304001A1007C
:10048800C130A0008130890B472AA00B472AA10B55
:10049800472A00327A08F3007908F20084313724B9
:1004A800823115304001A1004B30A000BE30890BCD
:1004B8005B2AA00B5B2AA10B5B2A00001A3086314D
:1004C8002526823105304001A1000F30A000F1300F
:1004D800890B6C2AA00B6C2AA10B6C2A4930F200FC
:1004E8008630F30084313724823140019A17053071
:1004F8004001A1000F30A000F130890B812AA00B28
:10050800812AA10B812A08002430F2008530F300EB
:1005180084315124823101308231E8228231C7305E
:10052800F2008430F3008431372482311530F8002A
:100538004B30F700BE30890B9F2AF70B9F2AF80B28
:100548009F2A00329B30F2008530F3008431372433
:10055800823140019A176830F700E430890BB22ADB
:10056800F70BB22A00328631012682310330F100BE
:100578000030F2008431DA2482317C08031DD82A45
:100588004E018F1EC12A863101268231F700770875
:10059800F9004F307906031DD32A40019A137908D0
:1005A80086312D268231C12A8530F2008530F3004C
:1005B8008431512482316830F700E430890BE22A13
:1005C800F70BE22A00320800F1007E01A601A10122
:1005D8009401A4012C2B0F307E01A60000304201AB
:1005E8009C00CF309B00400194157D014B08C03919
:1005F80013382A2B0F307E01A100003042019C00E5
:1006080010309B00400114147D014B08C03910388C
:100618002A2B0F307E019400003042019C001030DC
:100628009B00400192167D014B08C03905382A2BE2
:100638000F307E01A400003042019C00CF309B00A7
:10064800400194167D014B08C0391538CB003A2B70
:100658007108003A03191C2B013A03190D2B033AB0
:100668000319EF2A013A0319FE2A3A2B42011E15F3
:100678001E129D179E161D16080000308231E822B2
:1006880083316230F2008530F300843151248331A4
:10069800F8010330F1000030F2008431DA248331AC
:1006A800772B4E018F1E772B1D30F1008630F2001C
:1006B800843115248331003A0319772B6330F7000E
:1006C8007708F9000A3079060319752B8631012657
:1006D8008331F7007708F900790886312D268331B0
:1006E800662BF801F80A7C08031978080319552BBA
:1006F800BB30F2008530F3008431512483316830F7
:10070800F700E430890B862BF70B862B00320800A4
:10071800F7000130F3020030F43B730A0319740A3E
:100728000319C92B77088600870101080319A92B2B
:1007380071088400720885000008F50077088600B3
:100748008701010875060319C02B71088400720817
:1007580085000008F500F601F509F609F50A031900
:10076800F60A77088600870101087507F100760800
:100778000318760AF20008000130F5007508F7073B
:100788000130F1070030F23D8D2BF101F201080034
:10079800F500D62B0130F3007308F5070130F10797
:1007A8000030F23D750886008701710884007208E0
:1007B80085000008FF3A013E0107F3007308F400C2
:1007C8007408031DED2B7508860087010108031DB9
:1007D800CE2B7408F100F201F11BF20308007E0130
:1007E800B801C301CE01A701400194139A138B17D6
:1007F8000B17CB304001E800EC30E7008430890B60
:10080800032CE70B032CE80B032C00008431B124E4
:10081800833102308231E8228331803131208331C3
:10082800112CF401F5017108740784007208753DF4
:10083800850012000319352C7108740784007208AA
:10084800753D85000008F300863101268431730662
:10085800031D332C0130F4070030F53D172C003010
:10086800080001300800F501F601720875078400D8
:100878007308763D85001200031908007208750791
:1008880084007308763D850000088631252684316A
:100898000130F5070030F63D392CF501F6017208F4
:1008A800750784007308763D850012000319080057
:1008B8007208750784007308763D85000008863144
:1008C8002D2684310130F5070030F63D532C0230D7
:1008D8008231E82284313530F2008630F3008431E9
:1008E800372484317808F3007708F20084313724FC
:1008F80084314930F2008630F3008431372408000F
:100908003434383436343534363463343634633436
:100918003634663432343034353437343634663429
:10092800373432343634633436343434003447346C
:10093800453454345F3441344C344C345F3453348C
:1009480045344E3444345F345334493447344634A0
:100958004F3458340D340A34003411307E019E006F
:1009680054011E1500309C0010309B001E129D176C
:100978009E16400193167D014D08C0390D38CD00F3
:1009880054011D160800413454342B344334573471
:100998004C34413450344F34503454343D34313471
:1009A8002C34313432340D340A340034FC017208EA
:1009B8004001EC007108EB00E901EA014E019616CE
:1009C80010304B019E0047309F009E1708003034BE
:1009D80030343034303430343034303430343034EF
:1009E8003034303430340D340A340034533449341C
:1009F800473446344F3458345F34533454344134D4
:100A0800523454340D340A3400344D34453453349C
:100A180053344134473445345F3445344E344434D8
:100A28000D340A34003453344934473446344F348F
:100A380058345F3445344E3444340D340A34003469
:100A480057344934463449345F3453345434413488
:100A5800523454340D340A340034533445344E344B
:100A680044345F3453344934473446344F3458346B
:100A78003A340034413454342B3443344D344734FD
:100A880046343D3431340D340A340034413454345E
:100A98002B3443345234453447343D3432340D34E6
:100AA8000A340034473453344D345F3453345434A7
:100AB8004134523454340D340A34003447345034F9
:100AC80053345F34533454344134523454340D3431
:100AD8000A340034483465346C346C346F34203450
:100AE80057346F3472346C346434003441345434C1
:100AF8002B3443345234453447343F340D340A34AC
:100B0800003457344934463449345F3445344E341C
:100B180044340D340A3400344734453454345F3493
:100B280057344934463449340D340A340034413496
:100B380054342B34433457344C34413450340D340A
:100B48000A340034533445344E3444345F34533417
:100B58004D3453340D340A340034473453344D344F
:100B68005F3445344E3444340D340A340034473449
:100B7800503453345F3445344E3444340D340A34DD
:100B8800003454345234493447344F3446344634AC
:100B98000D340A3400344734453454345F34413416
:100BA8004C344C340D340A3400344734453454340E
:100BB8005F34473453344D340D340A3400344734E9
:100BC800453454345F344734503453340D340A3484
:100BD8000034413454342B3443344D344734533483
:100BE8003D34223400344E018F1FF72D54019D1CD3
:100BF800FF2D9D139D17190808004E018F1E012E09
:100C080042019D1C092E9D139D1719080800543494
:100C18005234493447344F344E340D340A34003496
:100C2800413454342B344334533451340D340A345E
:100C380000342434473450344734473441342C3456
:100C48000034F1004E010F1E262E710842019A0051
:100C58000800F1004E010F1F2E2E710854019A0052
:100C68000800413454342434533446343D34003479
:100C78006E3475346D346D346534723400344134F7
:100C880054340D340A34003422340D340A34003418
:020000040001F9
:0A000E008C3FFF3F9F3FFF3FFF3F85
:00000001FF
