:0400000080312528FE
:100008007E14803140017F08F0004E018C1E1328B9
:1000180001304001E8070030E93D4E018C124001F3
:100028006B086906031D1A286A086806031D20283C
:10003800FC01FC0A4B019E1370084001FF007E1072
:10004800090080312728FC014001E801E901EA01A3
:10005800EB017E1040018331AD2B4E018F1F3128FB
:100068000230F1000030F20084315A24803140011E
:10007800E101E2017C08031D54284E018F1F3E2830
:1000880085316D258031FB0040016108403E8600C6
:1000980087017B0881000130E1070030E23D3E28FE
:1000A80040016108403E8600870181015930F10016
:1000B8008530F20040308331642380317108720446
:1000C800031D70288231D92280318930F2008430B2
:1000D800F3008331E82308004F30F1008530F20047
:1000E800403083316423803171087204031D8628EF
:1000F8008131412180318930F2008430F30083312D
:10010800E82308001030F1008530F20040308331D8
:100118006423803171087204031D9C288231852272
:1001280080318930F2008430F3008331E8230800FD
:100138001B30F1008430F200403083316423803179
:1001480071087204031DBF286B30F7008430F80073
:100158008431022480318231D92280318131412198
:1001680080318231852280318930F2008430F30079
:100178008331E82308004530F1008530F200403033
:1001880083316423803171087204031DDB288231B6
:10019800D9228031813141218031823185228031DB
:1001A8008930F2008430F3008331E8230800B1304D
:1001B800F1008430F2000C30F3000030F4004030DD
:1001C80083312423803171087204031D19294C30AE
:1001D800FB007B084001E500E301E40165088600B7
:1001E80087010D30010603190D296508860087016E
:1001F8000108FB006308223E860087017B08810016
:100208000130FB007B08E5070130E3070030E43DDF
:10021800F2286308223E8600870181012230F70018
:100228000030F800843102240800A930F700853036
:10023800F800EE30F9008430FA008131B8218031BD
:100248000430F1000030F20084315A2480317C08F7
:10025800031D08004E018F1E2B298531772580311B
:10026800FB007B084001E0004F3060060319931340
:10027800600885319A2580312B29D630F2008430E8
:10028800F3008331E8238131033082312C2281311C
:10029800CA30F2008430F3008331CE238131153027
:1002A800F8004B30F700BE30890B5829F70B582956
:1002B800F80B582900328130F2008530F300833181
:1002C800CE2381316830F700E430890B6929F70BB8
:1002D800692900328531772581310130F1000030FC
:1002E800F20084315A2481317C08031D85294E018E
:1002F8008F1E782985317725813185319A2581317D
:100308007829FA30F2008430F3008331CE2381312A
:100318006830F700E430890B8F29F70B8F290032FA
:100328000130F1000030F20084315A2481317C0818
:10033800031DA8294E018F1E9B2985317725813100
:1003480085319A2581319B293130F2008530F300BF
:100358008331E82381316830F700E430890BB22912
:10036800F70BB22900320800033082312C22813188
:10037800BE30F2008430F3008331CE238131523015
:100388004001A1002B30A0000030890BC929A00B27
:10039800C929A10BC92900006330F2008530F30098
:1003A8008331CE2381317808F3007708F200833156
:1003B800CE238131B530F2008530F3008331CE236E
:1003C80081317A304001A100C130A0008130890B11
:1003D800EB29A00BEB29A10BEB2900327A08F300DB
:1003E8007908F2008331CE23813115304001A10014
:1003F8004B30A000BE30890BFF29A00BFF29A10BB1
:10040800FF2900001A3085319225813105304001DD
:10041800A1000F30A000F130890B102AA00B102A80
:10042800A10B102AB630F2008530F3008331CE23B9
:1004380081314001931705304001A1000F30A00021
:10044800F130890B252AA00B252AA10B252A0800A3
:10045800F1007E01A601A1019401A401702A0F30C8
:100468007E01A600003042019C00CF309B00400175
:1004780094157D014B08C03913386E2A0F307E0160
:10048800A100003042019C0010309B004001141470
:100498007D014B08C03910386E2A0F307E01940058
:1004A800003042019C0010309B00400192167D01F3
:1004B8004B08C03905386E2A0F307E01A400003081
:1004C80042019C00CF309B00400194167D014B08EF
:1004D800C0391538CB007E2A7108003A0319602A02
:1004E800013A0319512A033A0319332A013A031925
:1004F800422A7E2A42011E151E129D179E161D169F
:100508000800A430F2008430F3008331E8238231FC
:10051800013082312C2282314730F2008430F300DE
:100528008331CE2382311530F8004B30F700BE30CE
:10053800890B9C2AF70B9C2AF80B9C2A00321B304B
:10054800F2008530F3008331CE2382316830F70022
:10055800E430890BAD2AF70BAD2A003285317725B7
:1005680082310330F1000030F20084315A248231A4
:100578007C08031DC92A4E018F1EBC2A85317725A8
:10058800823185319A258231BC2A0530F2008530C6
:10059800F3008331E82382316830F700E430890BB7
:1005A800D32AF70BD32A00320800003082312C22DC
:1005B8008231E230F2008430F3008331E823823163
:1005C800F8010330F1000030F20084315A248231FE
:1005D8000F2B4E018F1E0F2B8A30F1008530F20051
:1005E80083318B238231003A03190F2B6330F700D4
:1005F8007708F9000A30790603190D2B853177251C
:100608008231F7007708F900790885319A25823117
:10061800FE2AF801F80A7C08031978080319ED2A5C
:100628003B30F2008530F3008331E82382316830B3
:10063800F700E430890B1E2BF70B1E2B0032080045
:10064800F7000130F3020030F43B730A0319740A0F
:100658000319612B77088600870101080319412BCC
:1006680071088400720885000008F5007708860084
:100678008701010875060319582B71088400720850
:1006880085000008F500F601F509F609F50A0319D1
:10069800F60A77088600870101087507F1007608D1
:1006A8000318760AF20008000130F5007508F7070C
:1006B8000130F1070030F23D252BF101F20108006D
:1006C800F5006E2B0130F3007308F5070130F107D0
:1006D8000030F23D750886008701710884007208B1
:1006E80085000008FF3A013E0107F3007308F40093
:1006F8007408031D852B7508860087010108031DF2
:10070800662B7408F100F201F11BF2030800F401F2
:10071800F5017108740784007208753D85001200A0
:100728000319AB2B7108740784007208753D8500A6
:100738000008F3008531772583317306031DA92B43
:100748000130F4070030F53D8D2B003008000130F2
:1007580008007E01B801C301CE014001931399132B
:100768008B170B17CB304001E700EC30E6008430E4
:10077800890BBC2BE60BBC2BE70BBC2B0000843190
:1007880031248331023082312C228331803131206F
:100798008331CA2BF501F6017208750784007308C6
:1007A800763D850012000319080072087507840059
:1007B8007308763D85000008853192258331013024
:1007C800F5070030F63DD02BF501F60172087507E4
:1007D80084007308763D850012000319080072082A
:1007E800750784007308763D8500000885319A25D1
:1007F80083310130F5070030F63DEA2B02308231B3
:100808002C228431A230F2008530F3008331CE23CC
:1008180084317808F3007708F2008331CE238431DD
:10082800B630F2008530F3008331CE230800473418
:10083800453454345F3441344C344C345F3453348D
:1008480045344E3444345F345334493447344634A1
:100858004F3458340D340A34003411307E019E0070
:1008680054011E1500309C0010309B001E129D176D
:100878009E16400193167D014D08C0390D38CD00F4
:1008880054011D160800413454342B344334573472
:100898004C34413450344F34503454343D34313472
:1008A8002C34313432340D340A340034FC017208EB
:1008B8004001EB007108EA00E801E9014E019616D3
:1008C80010304B019E0047309F009E1708003034BF
:1008D80030343034303430343034303430343034F0
:1008E8003034303430340D340A340034533449341D
:1008F800473446344F3458345F34533454344134D5
:10090800523454340D340A3400344D34453453349D
:1009180053344134473445345F3445344E344434D9
:100928000D340A34003453344934473446344F3490
:1009380058345F3445344E3444340D340A3400346A
:1009480057344934463449345F3453345434413489
:10095800523454340D340A340034533445344E344C
:1009680044345F3453344934473446344F3458346C
:100978003A340034413454342B3443344D344734FE
:1009880046343D3431340D340A340034413454345F
:100998002B3443345234453447343D3432340D34E7
:1009A8000A340034473453344D345F3453345434A8
:1009B8004134523454340D340A34003447345034FA
:1009C80053345F34533454344134523454340D3432
:1009D8000A340034483465346C346C346F34203451
:1009E80057346F3472346C346434003441345434C2
:1009F8002B3443345234453447343F340D340A34AD
:100A0800003457344934463449345F3445344E341D
:100A180044340D340A3400344734453454345F3494
:100A280057344934463449340D340A340034413497
:100A380054342B34433457344C34413450340D340B
:100A48000A340034533445344E3444345F34533418
:100A58004D3453340D340A340034473453344D3450
:100A68005F3445344E3444340D340A34003447344A
:100A7800503453345F3445344E3444340D340A34DE
:100A880000344734453454345F3441344C344C34A6
:100A98000D340A3400344734453454345F34473411
:100AA80053344D340D340A34003447344534543407
:100AB8005F344734503453340D340A3400344134ED
:100AC80054342B3443344D34473453343D34223476
:100AD80000344E018F1F6D2D54019D1C752D9D13E3
:100AE8009D17190808004E018F1E772D42019D1C85
:100AF8007F2D9D139D1719080800413454342B3459
:100B08004334533451340D340A34003424344734D4
:100B180050344734473441342C340034F1004E010A
:100B28000F1E932D710842019A000800F1004E0132
:100B38000F1F9B2D710854019A000800413454344A
:100B48002434533446343D3400346E3475346D34B3
:100B58006D34653472340034413454340D340A34FD
:0A0B6800003422340D340A34003446
:020000040001F9
:0A000E008C3FFF3F9F3FFF3FFF3F85
:00000001FF
