:0400000080312528FE
:100008007E14803140017F08F0004E018C1E1328B9
:1000180001304001E5070030E63D4E018C124001F9
:1000280068086606031D1A2867086506031D202848
:10003800FB01FB0A4B019E1370084001FF007E1074
:10004800090080312728FB014001E501E601E701AD
:10005800E8017E1040018331112B4E018F1F31289A
:100068000230F1000030F2008331BB2380314001BF
:10007800DE01DF017B08031D54284E018F1F3E2837
:100088008431A1248031FA0040015E083E3E86009A
:1000980087017A0881000130DE070030DF3D3E2805
:1000A80040015E083E3E8600870181019730F100DD
:1000B8008430F2003E308231C822803171087204E7
:1000C800031D702882313D228031EA30F2008330EE
:1000D800F3008331492308008D30F1008430F200A9
:1000E8003E308231C822803171087204031D86288F
:1000F800813119218031EA30F2008330F3008331F5
:10010800492308005930F1008430F2003E30823132
:10011800C822803171087204031D9C288131E921AD
:100128008031EA30F2008330F3008331492308003C
:100138007C30F1008330F2003E308231C8228031B9
:1001480071087204031DBF28CC30F7008330F80013
:1001580083316323803182313D22803181311921FD
:1001680080318131E9218031EA30F2008330F300B7
:100178008331492308008330F1008430F2003E3097
:100188008231C822803171087204031DDB28823154
:100198003D2280318131192180318131E92180313D
:1001A800EA30F2008330F30083314923080012302B
:1001B800F1008430F2000C30F3000030F4003E30DF
:1001C80082318822803171087204031D08004A3088
:1001D800FA007A084001E200E001E10162088600C5
:1001E80087010D30010603190D2962088600870171
:1001F8000108FA006008203E860087017A0881001D
:100208000130FA007A08E2070130E0070030E13DEA
:10021800F2286008203E8600870181012030F7001F
:100228000030F8008331632308002B30F20084305B
:10023800F3008331492381310330813190218131A9
:100248001F30F2008430F30083312F2381311530C1
:10025800F8004B30F700BE30890B3029F70B3029F6
:10026800F80B30290032B530F2008430F3008331C6
:100278002F2381316830F700E430890B4129F70BCF
:10028800412900328431AB2481310130F100003042
:10029800F2008331BB2381317B08031D5D294E01A8
:1002A8008F1E50298431AB2481318431CE24813191
:1002B80050294330F2008430F30083312F238131F9
:1002C8006830F700E430890B6729F70B672900329B
:1002D8000130F1000030F2008331BB2381317B080B
:1002E800031D80294E018F1E73298431AB2481316F
:1002F8008431CE24813173296F30F2008430F300C9
:100308008331492381316830F700E430890B8A2929
:10031800F70B8A2900320800F1007E01A601A1012D
:100328009401A401D4290F307E01A60000304201B7
:100338009C00CF309B00400194157D014B08C039CB
:100348001338D2290F307E01A100003042019C00F1
:1003580010309B00400114147D014B08C03910383F
:10036800D2290F307E019400003042019C001030E9
:100378009B00400192167D014B08C0390538D229EF
:100388000F307E01A400003042019C00CF309B005A
:10039800400194167D014B08C0391538CB00E2297D
:1003A8007108003A0319C429013A0319B529033A17
:1003B80003199729013A0319A629E22942011E15B2
:1003C8001E129D179E161D1608000530F200843077
:1003D800F30083314923813101308131902181310A
:1003E800A830F2008330F30083312F238131153098
:1003F800F8004B30F700BE30890B002AF70B002AB3
:10040800F80B002A00326430F2008430F3008331A4
:100418002F2381316830F700E430890B112AF70B5C
:10042800112A00328431AB2481310330F1000030CD
:10043800F2008331BB2381317B08031D2D2A4E0135
:100448008F1E202A8431AB2481318431CE2481311E
:10045800202A4E30F2008430F30083314923813161
:100468006830F700E430890B372AF70B372A003257
:10047800080000308131902182313730F200843019
:10048800F300833149238231F8010330F100003051
:10049800F2008331BB238231732A4E018F1E732AE7
:1004A800BE30F1008430F2008231EF228231003A0E
:1004B8000319732A6330F7007708F9000A307906C0
:1004C8000319712A8431AB248231F7007708F900C7
:1004D80079088431CE248231622AF801F80A7B082F
:1004E800031978080319512A7930F2008430F3008F
:1004F8008331492382316830F700E430890B822A3E
:10050800F70B822A00320800F7000130F3020030AE
:10051800F43B730A0319740A0319C52A770886007D
:10052800870101080319A52A71088400720885004B
:100538000008F50077088600870101087506031989
:10054800BC2A71088400720885000008F500F601CD
:10055800F509F609F50A0319F60A770886008701EE
:1005680001087507F10076080318760AF2000800FA
:100578000130F5007508F7070130F1070030F23D4A
:10058800892AF101F2010800F500D22A0130F300AE
:100598007308F5070130F1070030F23D7508860051
:1005A800870171088400720885000008FF3A013E3F
:1005B8000107F3007308F4007408031DE92A75089D
:1005C800860087010108031DCA2A7408F100F20198
:1005D800F11BF2030800F401F501710874078400A7
:1005E8007208753D8500120003190F2B71087407F6
:1005F80084007208753D85000008F3008431AB243F
:1006080082317306031D0D2B0130F4070030F53DD0
:10061800F12A00300800013008007E01B801C3014A
:10062800CE018B170B17CB304001E400EC30E30010
:100638008430890B1D2BE30B1D2BE40B1D2B0000B5
:10064800833192238331023081319021833180318B
:10065800312083312B2BF501F601720875078400D0
:100668007308763D850012000319080072087507A3
:1006780084007308763D850000088431C6248331E0
:100688000130F5070030F63D312BF501F60172080F
:10069800750784007308763D850012000319080069
:1006A8007208750784007308763D85000008843158
:1006B800CE2483310130F5070030F63D4B2B023054
:1006C800813190218331D630F2008430F3008331B8
:1006D8002F2383317808F3007708F20083312F2322
:1006E8008331D830F2008330F30083312F230800A0
:1006F8004734453454345F3441344C344C345F34DB
:10070800533445344E3444345F34533449344734D5
:1007180046344F3458340D340A34003411307E01D5
:100728009E0054011E1500309C0010309B001E12C4
:100738009D179E16400193167D014D08C0390D384E
:10074800CD0054011D160800413454342B34433471
:1007580057344C34413450344F34503454343D348D
:1007680031342C34313432340D340A340034FB0142
:1007780072084001E8007108E700E501E6014E0152
:10078800961610304B019E0047309F009E170800B8
:100798003034303430343034303430343034303431
:1007A80030343034303430340D340A340034533477
:1007B8004934473446344F3458345F34533454340E
:1007C8004134523454340D340A3400344D344534F1
:1007D800533453344134473445345F3445344E340C
:1007E80044340D340A3400345334493447344634DD
:1007F8004F3458345F3445344E3444340D340A345D
:10080800003457344934463449345F34533454340B
:100818004134523454340D340A340034533445349A
:100828004E3444345F3453344934473446344F34B7
:1008380058343A340034413454342B344334523429
:10084800453447343D3432340D340A3400344734A7
:1008580053344D345F345334543441345234543463
:100868000D340A3400344734503453345F3453342D
:1008780054344134523454340D340A34003441343D
:1008880054342B3443345234453447343F340D34D4
:100898000A34003457344934463449345F344534D3
:1008A8004E3444340D340A34003447344534543417
:1008B8005F3457344934463449340D340A340034EB
:1008C800413454342B34433457344C344134503449
:1008D8000D340A340034473453344D345F344534CE
:1008E8004E3444340D340A340034473450345334CD
:1008F8005F3445344E3444340D340A3400344734BC
:10090800453454345F3441344C344C340D340A3457
:1009180000344734453454345F34473453344D3409
:100928000D340A3400344734453454345F34473482
:10093800503453340D340A3400344E018F1FA12C27
:1009480054019D1CA92C9D139D17190808004E01E0
:100958008F1EAB2C42019D1CB32C9D139D171908AB
:100968000800413454342B344334533451340D3457
:100978000A3400342434473450344734473441343B
:100988002C340034F1004E010F1EC72C71084201AF
:100998009A000800F1004E010F1FCF2C7108540176
:1009A8009A000800413454342434533446343D34D6
:0C09B8000034413454340D340A3400344F
:020000040001F9
:0A000E008C3FFF3F9F3FFF3FFF3F85
:00000001FF
